{
  "address": "0x6C5c9115ef9C241Bd0efBA333B873c2E790E90A9",
  "abi": [
    {
      "anonymous": false,
      "inputs": [
        {
          "indexed": true,
          "internalType": "uint256",
          "name": "projectId",
          "type": "uint256"
        },
        {
          "indexed": false,
          "internalType": "uint256",
          "name": "contribution",
          "type": "uint256"
        },
        {
          "indexed": true,
          "internalType": "address",
          "name": "contributor",
          "type": "address"
        },
        {
          "indexed": false,
          "internalType": "address",
          "name": "token",
          "type": "address"
        }
      ],
      "name": "ContributionUpdated",
      "type": "event"
    },
    {
      "anonymous": false,
      "inputs": [
        {
          "indexed": false,
          "internalType": "uint256[]",
          "name": "projectIds",
          "type": "uint256[]"
        },
        {
          "indexed": false,
          "internalType": "address[][]",
          "name": "contributers",
          "type": "address[][]"
        },
        {
          "indexed": false,
          "internalType": "bytes[][]",
          "name": "roundUpDatas",
          "type": "bytes[][]"
        }
      ],
      "name": "Executed",
      "type": "event"
    },
    {
      "anonymous": false,
      "inputs": [
        {
          "indexed": false,
          "internalType": "uint256",
          "name": "projectId",
          "type": "uint256"
        },
        {
          "indexed": false,
          "internalType": "enum IPerpetualMotion.Strategies",
          "name": "strategy",
          "type": "uint8"
        },
        {
          "indexed": false,
          "internalType": "bytes",
          "name": "strategyData",
          "type": "bytes"
        }
      ],
      "name": "PledgeCreated",
      "type": "event"
    },
    {
      "anonymous": false,
      "inputs": [
        {
          "indexed": true,
          "internalType": "address",
          "name": "fundingAddress",
          "type": "address"
        },
        {
          "indexed": false,
          "internalType": "string",
          "name": "name",
          "type": "string"
        },
        {
          "indexed": false,
          "internalType": "string",
          "name": "description",
          "type": "string"
        },
        {
          "indexed": false,
          "internalType": "uint256",
          "name": "fundingGoal",
          "type": "uint256"
        }
      ],
      "name": "ProjectCreated",
      "type": "event"
    },
    {
      "inputs": [
        {
          "internalType": "string",
          "name": "name",
          "type": "string"
        },
        {
          "internalType": "string",
          "name": "description",
          "type": "string"
        },
        {
          "internalType": "address",
          "name": "fundingAddress",
          "type": "address"
        },
        {
          "internalType": "address",
          "name": "fundingToken",
          "type": "address"
        },
        {
          "internalType": "uint256",
          "name": "fundingGoal",
          "type": "uint256"
        },
        {
          "internalType": "uint256",
          "name": "duration",
          "type": "uint256"
        }
      ],
      "name": "createProject",
      "outputs": [],
      "stateMutability": "nonpayable",
      "type": "function"
    },
    {
      "inputs": [
        {
          "internalType": "uint256[]",
          "name": "_projectIds",
          "type": "uint256[]"
        },
        {
          "internalType": "address[][]",
          "name": "_contributers",
          "type": "address[][]"
        },
        {
          "internalType": "bytes[][]",
          "name": "_roundUpDatas",
          "type": "bytes[][]"
        }
      ],
      "name": "execute",
      "outputs": [],
      "stateMutability": "nonpayable",
      "type": "function"
    },
    {
      "inputs": [
        {
          "internalType": "uint256",
          "name": "_projectId",
          "type": "uint256"
        },
        {
          "internalType": "enum IPerpetualMotion.Strategies",
          "name": "_strategy",
          "type": "uint8"
        },
        {
          "internalType": "bytes",
          "name": "_strategyData",
          "type": "bytes"
        }
      ],
      "name": "pledge",
      "outputs": [],
      "stateMutability": "nonpayable",
      "type": "function"
    },
    {
      "inputs": [],
      "name": "projectCounter",
      "outputs": [
        {
          "internalType": "uint256",
          "name": "",
          "type": "uint256"
        }
      ],
      "stateMutability": "view",
      "type": "function"
    },
    {
      "inputs": [
        {
          "internalType": "uint256",
          "name": "",
          "type": "uint256"
        },
        {
          "internalType": "address",
          "name": "",
          "type": "address"
        }
      ],
      "name": "projectToContributors",
      "outputs": [
        {
          "internalType": "enum IPerpetualMotion.Strategies",
          "name": "strategyType",
          "type": "uint8"
        },
        {
          "internalType": "bytes",
          "name": "strategyData",
          "type": "bytes"
        },
        {
          "internalType": "uint256",
          "name": "prevDonation",
          "type": "uint256"
        },
        {
          "internalType": "uint256",
          "name": "totalDonated",
          "type": "uint256"
        }
      ],
      "stateMutability": "view",
      "type": "function"
    },
    {
      "inputs": [
        {
          "internalType": "uint256",
          "name": "",
          "type": "uint256"
        }
      ],
      "name": "projects",
      "outputs": [
        {
          "internalType": "string",
          "name": "name",
          "type": "string"
        },
        {
          "internalType": "string",
          "name": "description",
          "type": "string"
        },
        {
          "internalType": "address",
          "name": "fundingAddress",
          "type": "address"
        },
        {
          "internalType": "address",
          "name": "fundingToken",
          "type": "address"
        },
        {
          "internalType": "uint256",
          "name": "fundingGoal",
          "type": "uint256"
        },
        {
          "internalType": "uint256",
          "name": "amountFunded",
          "type": "uint256"
        },
        {
          "internalType": "uint256",
          "name": "startTime",
          "type": "uint256"
        },
        {
          "internalType": "uint256",
          "name": "endTime",
          "type": "uint256"
        }
      ],
      "stateMutability": "view",
      "type": "function"
    },
    {
      "inputs": [
        {
          "internalType": "uint256",
          "name": "_projectId",
          "type": "uint256"
        }
      ],
      "name": "returnAmountFunded",
      "outputs": [
        {
          "internalType": "uint256",
          "name": "",
          "type": "uint256"
        }
      ],
      "stateMutability": "view",
      "type": "function"
    },
    {
      "inputs": [
        {
          "internalType": "uint256",
          "name": "_projectId",
          "type": "uint256"
        }
      ],
      "name": "returnFundingGoal",
      "outputs": [
        {
          "internalType": "uint256",
          "name": "",
          "type": "uint256"
        }
      ],
      "stateMutability": "view",
      "type": "function"
    },
    {
      "inputs": [
        {
          "internalType": "uint256",
          "name": "_projectId",
          "type": "uint256"
        },
        {
          "internalType": "address",
          "name": "_contributor",
          "type": "address"
        }
      ],
      "name": "returnUserDonations",
      "outputs": [
        {
          "internalType": "uint256",
          "name": "",
          "type": "uint256"
        }
      ],
      "stateMutability": "view",
      "type": "function"
    },
    {
      "inputs": [
        {
          "internalType": "uint256",
          "name": "_projectId",
          "type": "uint256"
        },
        {
          "internalType": "address",
          "name": "_contributor",
          "type": "address"
        }
      ],
      "name": "returnUserStrategy",
      "outputs": [
        {
          "internalType": "enum IPerpetualMotion.Strategies",
          "name": "",
          "type": "uint8"
        }
      ],
      "stateMutability": "view",
      "type": "function"
    },
    {
      "inputs": [
        {
          "internalType": "bytes",
          "name": "",
          "type": "bytes"
        }
      ],
      "name": "txHashes",
      "outputs": [
        {
          "internalType": "bool",
          "name": "",
          "type": "bool"
        }
      ],
      "stateMutability": "view",
      "type": "function"
    }
  ],
  "transactionHash": "0x19dfaaf9b9a325fc6e7acea8952c18e4aac8f630f27a22aced511a2308c5edfd",
  "args": [],
  "numDeployments": 1,
  "solcInputHash": "6ff71f52b6e2db50d89f96a5259b36bd",
  "bytecode": "0x608060405234801561001057600080fd5b50611cea806100206000396000f3fe608060405234801561001057600080fd5b50600436106100a95760003560e01c80638413f0d7116100715780638413f0d7146101755780638b47496e14610188578063bce72b7a1461019b578063bf02a2f5146101be578063c5b73cee146101e1578063f8a518ed1461022757600080fd5b8063107046bd146100ae5780631e004b1d146100de57806349a89edb146100ff5780636097c883146101145780637776a9ae14610152575b600080fd5b6100c16100bc366004611273565b610230565b6040516100d59897969594939291906112e4565b60405180910390f35b6100f16100ec366004611364565b610390565b6040519081526020016100d5565b61011261010d366004611455565b6103bd565b005b6101426101223660046114b2565b805160208183018101805160018252928201919093012091525460ff1681565b60405190151581526020016100d5565b6100f1610160366004611273565b60009081526003602052604090206004015490565b6101126101833660046114ef565b610572565b610112610196366004611790565b610723565b6101ae6101a9366004611364565b610aaa565b6040516100d5949392919061189b565b6100f16101cc366004611273565b60009081526003602052604090206005015490565b61021a6101ef366004611364565b60009182526002602090815260408084206001600160a01b0393909316845291905290205460ff1690565b6040516100d591906118ce565b6100f160005481565b60036020526000908152604090208054819061024b906118dc565b80601f0160208091040260200160405190810160405280929190818152602001828054610277906118dc565b80156102c45780601f10610299576101008083540402835291602001916102c4565b820191906000526020600020905b8154815290600101906020018083116102a757829003601f168201915b5050505050908060010180546102d9906118dc565b80601f0160208091040260200160405190810160405280929190818152602001828054610305906118dc565b80156103525780601f1061032757610100808354040283529160200191610352565b820191906000526020600020905b81548152906001019060200180831161033557829003601f168201915b5050506002840154600385015460048601546005870154600688015460079098015496976001600160a01b0394851697939094169550909350919088565b60008281526002602090815260408083206001600160a01b03851684529091529020600301545b92915050565b60018260038111156103d1576103d1611863565b03610420576000818060200190518101906103ec9190611916565b6000858152600360208190526040909120015490915061041a908590839033906001600160a01b0316610b6a565b50610532565b600082600381111561043457610434611863565b0361047e5760008381526002602090815260408083203384528252808320805460ff19168155815192830191829052918390529091610477916001840191611185565b5050610532565b600282600381111561049257610492611863565b036104dd5760008381526002602081815260408084203385528252909220805460ff19169091178155825190916104d0916001840191850190611185565b5042600290910155610532565b60038260038111156104f1576104f1611863565b036105325760008381526002602090815260408083203384528252909120805460ff191660031781558251909161052f916001840191850190611185565b50505b7fc2f8d5af656187ac5cf9f9f85622c163163c252c97c9a30dafd1a8cd00866c148383836040516105659392919061192f565b60405180910390a1505050565b604051806101200160405280878152602001868152602001856001600160a01b03168152602001846001600160a01b031681526020018381526020016000815260200142815260200182426105c79190611974565b815260200160006040519080825280602002602001820160405280156105f7578160200160208202803683370190505b50905260008054815260036020908152604090912082518051919261062192849290910190611185565b50602082810151805161063a9260018501920190611185565b5060408201516002820180546001600160a01b039283166001600160a01b03199182161790915560608401516003840180549190931691161790556080820151600482015560a0820151600582015560c0820151600682015560e0820151600782015561010082015180516106b9916008840191602090910190611209565b5090505060016000808282546106cf9190611974565b92505081905550836001600160a01b03167fccbc072d67f8035912fc6cbb40e564d2716e83d6e87b6a3974bd809c077f20518787856040516107139392919061198c565b60405180910390a2505050505050565b60005b8351811015610a765760005b838281518110610744576107446119c2565b602002602001015151811015610a635760006002600087858151811061076c5761076c6119c2565b602002602001015181526020019081526020016000206000868581518110610796576107966119c2565b602002602001015184815181106107af576107af6119c2565b6020908102919091018101516001600160a01b0316825281019190915260400160009081205460ff1691508160038111156107ec576107ec611863565b036107f75750610a51565b600281600381111561080b5761080b611863565b0361086a57610865868481518110610825576108256119c2565b602002602001015186858151811061083f5761083f6119c2565b60200260200101518481518110610858576108586119c2565b6020026020010151610b7c565b61092a565b600381600381111561087e5761087e611863565b0361092a57600080858581518110610898576108986119c2565b602002602001015184815181106108b1576108b16119c2565b60200260200101518060200190518101906108cc91906119d8565b915091506109278886815181106108e5576108e56119c2565b60200260200101518887815181106108ff576108ff6119c2565b60200260200101518681518110610918576109186119c2565b60200260200101518484610cdd565b50505b60036000878581518110610940576109406119c2565b602002602001015181526020019081526020016000206004015460036000888681518110610970576109706119c2565b602002602001015181526020019081526020016000206005015410610a4f57610a49600360008886815181106109a8576109a86119c2565b6020026020010151815260200190815260200160002060020160009054906101000a90046001600160a01b0316600360008987815181106109eb576109eb6119c2565b6020026020010151815260200190815260200160002060050154600360008a8881518110610a1b57610a1b6119c2565b6020908102919091018101518252810191909152604001600020600301546001600160a01b03169190610da1565b50610a63565b505b80610a5b81611a59565b915050610732565b5080610a6e81611a59565b915050610726565b507ffdb1e9a15a823d520c364c8a570cdb537e5a9caec1bfd8f8323377263b22a4cd83838360405161056593929190611b0d565b60026020908152600092835260408084209091529082529020805460018201805460ff9092169291610adb906118dc565b80601f0160208091040260200160405190810160405280929190818152602001828054610b07906118dc565b8015610b545780601f10610b2957610100808354040283529160200191610b54565b820191906000526020600020905b815481529060010190602001808311610b3757829003601f168201915b5050505050908060020154908060030154905084565b610b7684848484610e09565b50505050565b60008281526002602090815260408083206001600160a01b038516845290915281206001018054610bac906118dc565b80601f0160208091040260200160405190810160405280929190818152602001828054610bd8906118dc565b8015610c255780601f10610bfa57610100808354040283529160200191610c25565b820191906000526020600020905b815481529060010190602001808311610c0857829003601f168201915b5050505050905060008082806020019051810190610c439190611be7565b60008781526002602081815260408084206001600160a01b038b1685529091528220015492945090925082610c788342611c0b565b610c829190611c22565b610c8c9085611c44565b60008881526002602081815260408084203385528252808420429301929092558a835260039081905291200154909150610cd4908890839089906001600160a01b0316610e09565b50505050505050565b600182604051610ced9190611c63565b9081526040519081900360200190205460ff1615610d465760405162461bcd60e51b815260206004820152601160248201527012185cda08185b1c9958591e481d5cd959607a1b60448201526064015b60405180910390fd5b60018083604051610d579190611c63565b9081526040805160209281900383019020805460ff1916931515939093179092556000868152600391829052919091200154610b76908590839086906001600160a01b0316610e09565b6040516001600160a01b038316602482015260448101829052610e0490849063a9059cbb60e01b906064015b60408051601f198184030181529190526020810180516001600160e01b03166001600160e01b031990931692909217909152610ef8565b505050565b610e1e6001600160a01b038216833086610fca565b60008481526003602052604081206005018054859290610e3f908490611974565b9091555050600084815260036020818152604080842060080180546001810182559085528285200180546001600160a01b0319166001600160a01b038816908117909155888552600283528185209085529091528220018054859290610ea6908490611974565b9091555050604080518481526001600160a01b03838116602083015284169186917f8008911e5c097c99090c850c17b6cf06183f9de8c38867d426e3e0cbc933f43b910160405180910390a350505050565b6000610f4d826040518060400160405280602081526020017f5361666545524332303a206c6f772d6c6576656c2063616c6c206661696c6564815250856001600160a01b03166110029092919063ffffffff16565b805190915015610e045780806020019051810190610f6b9190611c7f565b610e045760405162461bcd60e51b815260206004820152602a60248201527f5361666545524332303a204552433230206f7065726174696f6e20646964206e6044820152691bdd081cdd58d8d9595960b21b6064820152608401610d3d565b6040516001600160a01b0380851660248301528316604482015260648101829052610b769085906323b872dd60e01b90608401610dcd565b6060611011848460008561101b565b90505b9392505050565b60608247101561107c5760405162461bcd60e51b815260206004820152602660248201527f416464726573733a20696e73756666696369656e742062616c616e636520666f6044820152651c8818d85b1b60d21b6064820152608401610d3d565b6001600160a01b0385163b6110d35760405162461bcd60e51b815260206004820152601d60248201527f416464726573733a2063616c6c20746f206e6f6e2d636f6e74726163740000006044820152606401610d3d565b600080866001600160a01b031685876040516110ef9190611c63565b60006040518083038185875af1925050503d806000811461112c576040519150601f19603f3d011682016040523d82523d6000602084013e611131565b606091505b509150915061114182828661114c565b979650505050505050565b6060831561115b575081611014565b82511561116b5782518084602001fd5b8160405162461bcd60e51b8152600401610d3d9190611ca1565b828054611191906118dc565b90600052602060002090601f0160209004810192826111b357600085556111f9565b82601f106111cc57805160ff19168380011785556111f9565b828001600101855582156111f9579182015b828111156111f95782518255916020019190600101906111de565b5061120592915061125e565b5090565b8280548282559060005260206000209081019282156111f9579160200282015b828111156111f957825182546001600160a01b0319166001600160a01b03909116178255602090920191600190910190611229565b5b80821115611205576000815560010161125f565b60006020828403121561128557600080fd5b5035919050565b60005b838110156112a757818101518382015260200161128f565b83811115610b765750506000910152565b600081518084526112d081602086016020860161128c565b601f01601f19169290920160200192915050565b60006101008083526112f88184018c6112b8565b9050828103602084015261130c818b6112b8565b6001600160a01b03998a16604085015297909816606083015250608081019490945260a084019290925260c083015260e0909101529392505050565b80356001600160a01b038116811461135f57600080fd5b919050565b6000806040838503121561137757600080fd5b8235915061138760208401611348565b90509250929050565b634e487b7160e01b600052604160045260246000fd5b604051601f8201601f1916810167ffffffffffffffff811182821017156113cf576113cf611390565b604052919050565b600067ffffffffffffffff8211156113f1576113f1611390565b50601f01601f191660200190565b600082601f83011261141057600080fd5b813561142361141e826113d7565b6113a6565b81815284602083860101111561143857600080fd5b816020850160208301376000918101602001919091529392505050565b60008060006060848603121561146a57600080fd5b8335925060208401356004811061148057600080fd5b9150604084013567ffffffffffffffff81111561149c57600080fd5b6114a8868287016113ff565b9150509250925092565b6000602082840312156114c457600080fd5b813567ffffffffffffffff8111156114db57600080fd5b6114e7848285016113ff565b949350505050565b60008060008060008060c0878903121561150857600080fd5b863567ffffffffffffffff8082111561152057600080fd5b61152c8a838b016113ff565b9750602089013591508082111561154257600080fd5b5061154f89828a016113ff565b95505061155e60408801611348565b935061156c60608801611348565b92506080870135915060a087013590509295509295509295565b600067ffffffffffffffff8211156115a0576115a0611390565b5060051b60200190565b600082601f8301126115bb57600080fd5b813560206115cb61141e83611586565b828152600592831b85018201928282019190878511156115ea57600080fd5b8387015b8581101561168557803567ffffffffffffffff81111561160e5760008081fd5b8801603f81018a136116205760008081fd5b85810135604061163261141e83611586565b82815291851b8301810191888101908d84111561164f5760008081fd5b938201935b838510156116745761166585611348565b82529389019390890190611654565b8852505050938501935084016115ee565b5090979650505050505050565b600082601f8301126116a357600080fd5b813560206116b361141e83611586565b82815260059290921b840181019181810190868411156116d257600080fd5b8286015b8481101561178557803567ffffffffffffffff808211156116f657600080fd5b818901915089603f83011261170a57600080fd5b8582013561171a61141e82611586565b81815260059190911b830160400190878101908c83111561173a57600080fd5b604085015b838110156117735780358581111561175657600080fd5b6117658f6040838a01016113ff565b84525091890191890161173f565b508752505050928401925083016116d6565b509695505050505050565b6000806000606084860312156117a557600080fd5b833567ffffffffffffffff808211156117bd57600080fd5b818601915086601f8301126117d157600080fd5b813560206117e161141e83611586565b82815260059290921b8401810191818101908a84111561180057600080fd5b948201945b8386101561181e57853582529482019490820190611805565b9750508701359250508082111561183457600080fd5b611840878388016115aa565b9350604086013591508082111561185657600080fd5b506114a886828701611692565b634e487b7160e01b600052602160045260246000fd5b6004811061189757634e487b7160e01b600052602160045260246000fd5b9052565b6118a58186611879565b6080602082015260006118bb60808301866112b8565b6040830194909452506060015292915050565b602081016103b78284611879565b600181811c908216806118f057607f821691505b60208210810361191057634e487b7160e01b600052602260045260246000fd5b50919050565b60006020828403121561192857600080fd5b5051919050565b83815261193f6020820184611879565b60606040820152600061195560608301846112b8565b95945050505050565b634e487b7160e01b600052601160045260246000fd5b600082198211156119875761198761195e565b500190565b60608152600061199f60608301866112b8565b82810360208401526119b181866112b8565b915050826040830152949350505050565b634e487b7160e01b600052603260045260246000fd5b600080604083850312156119eb57600080fd5b825167ffffffffffffffff811115611a0257600080fd5b8301601f81018513611a1357600080fd5b8051611a2161141e826113d7565b818152866020838501011115611a3657600080fd5b611a4782602083016020860161128c565b60209590950151949694955050505050565b600060018201611a6b57611a6b61195e565b5060010190565b60008282518085526020808601955060058183821b8501018287016000805b86811015611afe57601f1988850381018c5283518051808752908801908887019080891b88018a01865b82811015611ae757858a8303018452611ad58286516112b8565b948c0194938c01939150600101611abb565b509e8a019e97505050938701935050600101611a91565b50919998505050505050505050565b606080825284519082018190526000906020906080840190828801845b82811015611b4657815184529284019290840190600101611b2a565b50505083810382850152855180825282820190600581901b8301840188850160005b83811015611bc557858303601f1901855281518051808552908801908885019060005b81811015611bb05783516001600160a01b03168352928a0192918a0191600101611b8b565b50509588019593505090860190600101611b68565b50508681036040880152611bd98189611a72565b9a9950505050505050505050565b60008060408385031215611bfa57600080fd5b505080516020909101519092909150565b600082821015611c1d57611c1d61195e565b500390565b600082611c3f57634e487b7160e01b600052601260045260246000fd5b500490565b6000816000190483118215151615611c5e57611c5e61195e565b500290565b60008251611c7581846020870161128c565b9190910192915050565b600060208284031215611c9157600080fd5b8151801515811461101457600080fd5b60208152600061101460208301846112b856fea2646970667358221220dae55fbab17cc191a824cc71fbb2260c3e31eadb013ed97fccc3ce3d3646a3d664736f6c634300080d0033",
  "devdoc": {
    "author": "chris, danceratopz",
    "kind": "dev",
    "methods": {},
    "title": "Perpetual Motion Protocol",
    "version": 1
  },
  "userdoc": {
    "kind": "user",
    "methods": {},
    "notice": "A protocol that enables contributors to stream donations to         project creators",
    "version": 1
  },
  "storageLayout": {
    "storage": [
      {
        "astId": 5920,
        "contract": "contracts/PerpetualMotionProtocol.sol:PerpetualMotionProtocol",
        "label": "projectCounter",
        "offset": 0,
        "slot": "0",
        "type": "t_uint256"
      },
      {
        "astId": 5924,
        "contract": "contracts/PerpetualMotionProtocol.sol:PerpetualMotionProtocol",
        "label": "txHashes",
        "offset": 0,
        "slot": "1",
        "type": "t_mapping(t_bytes_memory_ptr,t_bool)"
      },
      {
        "astId": 5931,
        "contract": "contracts/PerpetualMotionProtocol.sol:PerpetualMotionProtocol",
        "label": "projectToContributors",
        "offset": 0,
        "slot": "2",
        "type": "t_mapping(t_uint256,t_mapping(t_address,t_struct(ContributerStrategy)6566_storage))"
      },
      {
        "astId": 5936,
        "contract": "contracts/PerpetualMotionProtocol.sol:PerpetualMotionProtocol",
        "label": "projects",
        "offset": 0,
        "slot": "3",
        "type": "t_mapping(t_uint256,t_struct(Project)6556_storage)"
      }
    ],
    "types": {
      "t_address": {
        "encoding": "inplace",
        "label": "address",
        "numberOfBytes": "20"
      },
      "t_array(t_address)dyn_storage": {
        "base": "t_address",
        "encoding": "dynamic_array",
        "label": "address[]",
        "numberOfBytes": "32"
      },
      "t_bool": {
        "encoding": "inplace",
        "label": "bool",
        "numberOfBytes": "1"
      },
      "t_bytes_memory_ptr": {
        "encoding": "bytes",
        "label": "bytes",
        "numberOfBytes": "32"
      },
      "t_bytes_storage": {
        "encoding": "bytes",
        "label": "bytes",
        "numberOfBytes": "32"
      },
      "t_enum(Strategies)6571": {
        "encoding": "inplace",
        "label": "enum IPerpetualMotion.Strategies",
        "numberOfBytes": "1"
      },
      "t_mapping(t_address,t_struct(ContributerStrategy)6566_storage)": {
        "encoding": "mapping",
        "key": "t_address",
        "label": "mapping(address => struct IPerpetualMotion.ContributerStrategy)",
        "numberOfBytes": "32",
        "value": "t_struct(ContributerStrategy)6566_storage"
      },
      "t_mapping(t_bytes_memory_ptr,t_bool)": {
        "encoding": "mapping",
        "key": "t_bytes_memory_ptr",
        "label": "mapping(bytes => bool)",
        "numberOfBytes": "32",
        "value": "t_bool"
      },
      "t_mapping(t_uint256,t_mapping(t_address,t_struct(ContributerStrategy)6566_storage))": {
        "encoding": "mapping",
        "key": "t_uint256",
        "label": "mapping(uint256 => mapping(address => struct IPerpetualMotion.ContributerStrategy))",
        "numberOfBytes": "32",
        "value": "t_mapping(t_address,t_struct(ContributerStrategy)6566_storage)"
      },
      "t_mapping(t_uint256,t_struct(Project)6556_storage)": {
        "encoding": "mapping",
        "key": "t_uint256",
        "label": "mapping(uint256 => struct IPerpetualMotion.Project)",
        "numberOfBytes": "32",
        "value": "t_struct(Project)6556_storage"
      },
      "t_string_storage": {
        "encoding": "bytes",
        "label": "string",
        "numberOfBytes": "32"
      },
      "t_struct(ContributerStrategy)6566_storage": {
        "encoding": "inplace",
        "label": "struct IPerpetualMotion.ContributerStrategy",
        "members": [
          {
            "astId": 6559,
            "contract": "contracts/PerpetualMotionProtocol.sol:PerpetualMotionProtocol",
            "label": "strategyType",
            "offset": 0,
            "slot": "0",
            "type": "t_enum(Strategies)6571"
          },
          {
            "astId": 6561,
            "contract": "contracts/PerpetualMotionProtocol.sol:PerpetualMotionProtocol",
            "label": "strategyData",
            "offset": 0,
            "slot": "1",
            "type": "t_bytes_storage"
          },
          {
            "astId": 6563,
            "contract": "contracts/PerpetualMotionProtocol.sol:PerpetualMotionProtocol",
            "label": "prevDonation",
            "offset": 0,
            "slot": "2",
            "type": "t_uint256"
          },
          {
            "astId": 6565,
            "contract": "contracts/PerpetualMotionProtocol.sol:PerpetualMotionProtocol",
            "label": "totalDonated",
            "offset": 0,
            "slot": "3",
            "type": "t_uint256"
          }
        ],
        "numberOfBytes": "128"
      },
      "t_struct(Project)6556_storage": {
        "encoding": "inplace",
        "label": "struct IPerpetualMotion.Project",
        "members": [
          {
            "astId": 6538,
            "contract": "contracts/PerpetualMotionProtocol.sol:PerpetualMotionProtocol",
            "label": "name",
            "offset": 0,
            "slot": "0",
            "type": "t_string_storage"
          },
          {
            "astId": 6540,
            "contract": "contracts/PerpetualMotionProtocol.sol:PerpetualMotionProtocol",
            "label": "description",
            "offset": 0,
            "slot": "1",
            "type": "t_string_storage"
          },
          {
            "astId": 6542,
            "contract": "contracts/PerpetualMotionProtocol.sol:PerpetualMotionProtocol",
            "label": "fundingAddress",
            "offset": 0,
            "slot": "2",
            "type": "t_address"
          },
          {
            "astId": 6544,
            "contract": "contracts/PerpetualMotionProtocol.sol:PerpetualMotionProtocol",
            "label": "fundingToken",
            "offset": 0,
            "slot": "3",
            "type": "t_address"
          },
          {
            "astId": 6546,
            "contract": "contracts/PerpetualMotionProtocol.sol:PerpetualMotionProtocol",
            "label": "fundingGoal",
            "offset": 0,
            "slot": "4",
            "type": "t_uint256"
          },
          {
            "astId": 6548,
            "contract": "contracts/PerpetualMotionProtocol.sol:PerpetualMotionProtocol",
            "label": "amountFunded",
            "offset": 0,
            "slot": "5",
            "type": "t_uint256"
          },
          {
            "astId": 6550,
            "contract": "contracts/PerpetualMotionProtocol.sol:PerpetualMotionProtocol",
            "label": "startTime",
            "offset": 0,
            "slot": "6",
            "type": "t_uint256"
          },
          {
            "astId": 6552,
            "contract": "contracts/PerpetualMotionProtocol.sol:PerpetualMotionProtocol",
            "label": "endTime",
            "offset": 0,
            "slot": "7",
            "type": "t_uint256"
          },
          {
            "astId": 6555,
            "contract": "contracts/PerpetualMotionProtocol.sol:PerpetualMotionProtocol",
            "label": "contributorAddresses",
            "offset": 0,
            "slot": "8",
            "type": "t_array(t_address)dyn_storage"
          }
        ],
        "numberOfBytes": "288"
      },
      "t_uint256": {
        "encoding": "inplace",
        "label": "uint256",
        "numberOfBytes": "32"
      }
    }
  }
}